{
  "contractName": "Reward",
  "abi": [
    {
      "inputs": [
        {
          "internalType": "contract IERC20",
          "name": "_token",
          "type": "address"
        },
        {
          "internalType": "address",
          "name": "_oracle",
          "type": "address"
        }
      ],
      "stateMutability": "nonpayable",
      "type": "constructor"
    },
    {
      "anonymous": false,
      "inputs": [
        {
          "indexed": true,
          "internalType": "address",
          "name": "previousOwner",
          "type": "address"
        },
        {
          "indexed": true,
          "internalType": "address",
          "name": "newOwner",
          "type": "address"
        }
      ],
      "name": "OwnershipTransferred",
      "type": "event"
    },
    {
      "inputs": [],
      "name": "oracle",
      "outputs": [
        {
          "internalType": "address",
          "name": "",
          "type": "address"
        }
      ],
      "stateMutability": "view",
      "type": "function",
      "constant": true
    },
    {
      "inputs": [],
      "name": "owner",
      "outputs": [
        {
          "internalType": "address",
          "name": "",
          "type": "address"
        }
      ],
      "stateMutability": "view",
      "type": "function",
      "constant": true
    },
    {
      "inputs": [],
      "name": "renounceOwnership",
      "outputs": [],
      "stateMutability": "nonpayable",
      "type": "function"
    },
    {
      "inputs": [
        {
          "internalType": "address",
          "name": "",
          "type": "address"
        }
      ],
      "name": "rewardAccumulationMap",
      "outputs": [
        {
          "internalType": "uint256",
          "name": "",
          "type": "uint256"
        }
      ],
      "stateMutability": "view",
      "type": "function",
      "constant": true
    },
    {
      "inputs": [],
      "name": "token",
      "outputs": [
        {
          "internalType": "contract IERC20",
          "name": "",
          "type": "address"
        }
      ],
      "stateMutability": "view",
      "type": "function",
      "constant": true
    },
    {
      "inputs": [
        {
          "internalType": "address",
          "name": "newOwner",
          "type": "address"
        }
      ],
      "name": "transferOwnership",
      "outputs": [],
      "stateMutability": "nonpayable",
      "type": "function"
    },
    {
      "inputs": [
        {
          "internalType": "address",
          "name": "_oracle",
          "type": "address"
        }
      ],
      "name": "setOracle",
      "outputs": [],
      "stateMutability": "nonpayable",
      "type": "function"
    },
    {
      "inputs": [
        {
          "internalType": "uint256",
          "name": "_amount",
          "type": "uint256"
        },
        {
          "internalType": "address",
          "name": "_receiver",
          "type": "address"
        }
      ],
      "name": "reward",
      "outputs": [],
      "stateMutability": "nonpayable",
      "type": "function"
    }
  ],
  "bytecode": "0x60806040523480156200001157600080fd5b50604051620012af380380620012af833981810160405281019062000037919062000342565b620000576200004b620001c760201b60201c565b620001cf60201b60201c565b600073ffffffffffffffffffffffffffffffffffffffff168273ffffffffffffffffffffffffffffffffffffffff161415620000ca576040517f08c379a0000000000000000000000000000000000000000000000000000000008152600401620000c190620003ea565b60405180910390fd5b600073ffffffffffffffffffffffffffffffffffffffff168173ffffffffffffffffffffffffffffffffffffffff1614156200013d576040517f08c379a000000000000000000000000000000000000000000000000000000000815260040162000134906200045c565b60405180910390fd5b81600160006101000a81548173ffffffffffffffffffffffffffffffffffffffff021916908373ffffffffffffffffffffffffffffffffffffffff16021790555080600260006101000a81548173ffffffffffffffffffffffffffffffffffffffff021916908373ffffffffffffffffffffffffffffffffffffffff16021790555050506200047e565b600033905090565b60008060009054906101000a900473ffffffffffffffffffffffffffffffffffffffff169050816000806101000a81548173ffffffffffffffffffffffffffffffffffffffff021916908373ffffffffffffffffffffffffffffffffffffffff1602179055508173ffffffffffffffffffffffffffffffffffffffff168173ffffffffffffffffffffffffffffffffffffffff167f8be0079c531659141344cd1fd0a4f28419497f9722a3daafe3b4186f6b6457e060405160405180910390a35050565b600080fd5b600073ffffffffffffffffffffffffffffffffffffffff82169050919050565b6000620002c58262000298565b9050919050565b6000620002d982620002b8565b9050919050565b620002eb81620002cc565b8114620002f757600080fd5b50565b6000815190506200030b81620002e0565b92915050565b6200031c81620002b8565b81146200032857600080fd5b50565b6000815190506200033c8162000311565b92915050565b600080604083850312156200035c576200035b62000293565b5b60006200036c85828601620002fa565b92505060206200037f858286016200032b565b9150509250929050565b600082825260208201905092915050565b7f496e76616c696420746f6b656e20616464726573730000000000000000000000600082015250565b6000620003d260158362000389565b9150620003df826200039a565b602082019050919050565b600060208201905081810360008301526200040581620003c3565b9050919050565b7f496e76616c6964206f7261636c65206164647265737300000000000000000000600082015250565b60006200044460168362000389565b915062000451826200040c565b602082019050919050565b60006020820190508181036000830152620004778162000435565b9050919050565b610e21806200048e6000396000f3fe608060405234801561001057600080fd5b50600436106100885760003560e01c80638da5cb5b1161005b5780638da5cb5b146100ed578063cc4873751461010b578063f2fde38b1461013b578063fc0c546a1461015757610088565b8063715018a61461008d57806371bb61f3146100975780637adbf973146100b35780637dc0d1d0146100cf575b600080fd5b610095610175565b005b6100b160048036038101906100ac91906108df565b6101fd565b005b6100cd60048036038101906100c8919061091f565b6104c5565b005b6100d76105f5565b6040516100e4919061095b565b60405180910390f35b6100f561061b565b604051610102919061095b565b60405180910390f35b6101256004803603810190610120919061091f565b610644565b6040516101329190610985565b60405180910390f35b6101556004803603810190610150919061091f565b61065c565b005b61015f610754565b60405161016c91906109ff565b60405180910390f35b61017d61077a565b73ffffffffffffffffffffffffffffffffffffffff1661019b61061b565b73ffffffffffffffffffffffffffffffffffffffff16146101f1576040517f08c379a00000000000000000000000000000000000000000000000000000000081526004016101e890610a77565b60405180910390fd5b6101fb6000610782565b565b600260009054906101000a900473ffffffffffffffffffffffffffffffffffffffff1673ffffffffffffffffffffffffffffffffffffffff1661023e61077a565b73ffffffffffffffffffffffffffffffffffffffff1614610294576040517f08c379a000000000000000000000000000000000000000000000000000000000815260040161028b90610ae3565b60405180910390fd5b6000600360008373ffffffffffffffffffffffffffffffffffffffff1673ffffffffffffffffffffffffffffffffffffffff16815260200190815260200160002054836102e19190610b32565b905060008111610326576040517f08c379a000000000000000000000000000000000000000000000000000000000815260040161031d90610bb2565b60405180910390fd5b600160009054906101000a900473ffffffffffffffffffffffffffffffffffffffff1673ffffffffffffffffffffffffffffffffffffffff1663095ea7b330836040518363ffffffff1660e01b8152600401610383929190610bd2565b6020604051808303816000875af11580156103a2573d6000803e3d6000fd5b505050506040513d601f19601f820116820180604052508101906103c69190610c33565b50600160009054906101000a900473ffffffffffffffffffffffffffffffffffffffff1673ffffffffffffffffffffffffffffffffffffffff166323b872dd3084846040518463ffffffff1660e01b815260040161042693929190610c60565b6020604051808303816000875af1158015610445573d6000803e3d6000fd5b505050506040513d601f19601f820116820180604052508101906104699190610c33565b5080600360008473ffffffffffffffffffffffffffffffffffffffff1673ffffffffffffffffffffffffffffffffffffffff16815260200190815260200160002060008282546104b99190610c97565b92505081905550505050565b6104cd61077a565b73ffffffffffffffffffffffffffffffffffffffff166104eb61061b565b73ffffffffffffffffffffffffffffffffffffffff1614610541576040517f08c379a000000000000000000000000000000000000000000000000000000000815260040161053890610a77565b60405180910390fd5b600073ffffffffffffffffffffffffffffffffffffffff168173ffffffffffffffffffffffffffffffffffffffff1614156105b1576040517f08c379a00000000000000000000000000000000000000000000000000000000081526004016105a890610d39565b60405180910390fd5b80600260006101000a81548173ffffffffffffffffffffffffffffffffffffffff021916908373ffffffffffffffffffffffffffffffffffffffff16021790555050565b600260009054906101000a900473ffffffffffffffffffffffffffffffffffffffff1681565b60008060009054906101000a900473ffffffffffffffffffffffffffffffffffffffff16905090565b60036020528060005260406000206000915090505481565b61066461077a565b73ffffffffffffffffffffffffffffffffffffffff1661068261061b565b73ffffffffffffffffffffffffffffffffffffffff16146106d8576040517f08c379a00000000000000000000000000000000000000000000000000000000081526004016106cf90610a77565b60405180910390fd5b600073ffffffffffffffffffffffffffffffffffffffff168173ffffffffffffffffffffffffffffffffffffffff161415610748576040517f08c379a000000000000000000000000000000000000000000000000000000000815260040161073f90610dcb565b60405180910390fd5b61075181610782565b50565b600160009054906101000a900473ffffffffffffffffffffffffffffffffffffffff1681565b600033905090565b60008060009054906101000a900473ffffffffffffffffffffffffffffffffffffffff169050816000806101000a81548173ffffffffffffffffffffffffffffffffffffffff021916908373ffffffffffffffffffffffffffffffffffffffff1602179055508173ffffffffffffffffffffffffffffffffffffffff168173ffffffffffffffffffffffffffffffffffffffff167f8be0079c531659141344cd1fd0a4f28419497f9722a3daafe3b4186f6b6457e060405160405180910390a35050565b600080fd5b6000819050919050565b61085e8161084b565b811461086957600080fd5b50565b60008135905061087b81610855565b92915050565b600073ffffffffffffffffffffffffffffffffffffffff82169050919050565b60006108ac82610881565b9050919050565b6108bc816108a1565b81146108c757600080fd5b50565b6000813590506108d9816108b3565b92915050565b600080604083850312156108f6576108f5610846565b5b60006109048582860161086c565b9250506020610915858286016108ca565b9150509250929050565b60006020828403121561093557610934610846565b5b6000610943848285016108ca565b91505092915050565b610955816108a1565b82525050565b6000602082019050610970600083018461094c565b92915050565b61097f8161084b565b82525050565b600060208201905061099a6000830184610976565b92915050565b6000819050919050565b60006109c56109c06109bb84610881565b6109a0565b610881565b9050919050565b60006109d7826109aa565b9050919050565b60006109e9826109cc565b9050919050565b6109f9816109de565b82525050565b6000602082019050610a1460008301846109f0565b92915050565b600082825260208201905092915050565b7f4f776e61626c653a2063616c6c6572206973206e6f7420746865206f776e6572600082015250565b6000610a61602083610a1a565b9150610a6c82610a2b565b602082019050919050565b60006020820190508181036000830152610a9081610a54565b9050919050565b7f496e76616c69642073656e646572206164647265737300000000000000000000600082015250565b6000610acd601683610a1a565b9150610ad882610a97565b602082019050919050565b60006020820190508181036000830152610afc81610ac0565b9050919050565b7f4e487b7100000000000000000000000000000000000000000000000000000000600052601160045260246000fd5b6000610b3d8261084b565b9150610b488361084b565b925082821015610b5b57610b5a610b03565b5b828203905092915050565b7f496e76616c69642072657761726420616d6f756e740000000000000000000000600082015250565b6000610b9c601583610a1a565b9150610ba782610b66565b602082019050919050565b60006020820190508181036000830152610bcb81610b8f565b9050919050565b6000604082019050610be7600083018561094c565b610bf46020830184610976565b9392505050565b60008115159050919050565b610c1081610bfb565b8114610c1b57600080fd5b50565b600081519050610c2d81610c07565b92915050565b600060208284031215610c4957610c48610846565b5b6000610c5784828501610c1e565b91505092915050565b6000606082019050610c75600083018661094c565b610c82602083018561094c565b610c8f6040830184610976565b949350505050565b6000610ca28261084b565b9150610cad8361084b565b9250827fffffffffffffffffffffffffffffffffffffffffffffffffffffffffffffffff03821115610ce257610ce1610b03565b5b828201905092915050565b7f496e76616c696420616464726573730000000000000000000000000000000000600082015250565b6000610d23600f83610a1a565b9150610d2e82610ced565b602082019050919050565b60006020820190508181036000830152610d5281610d16565b9050919050565b7f4f776e61626c653a206e6577206f776e657220697320746865207a65726f206160008201527f6464726573730000000000000000000000000000000000000000000000000000602082015250565b6000610db5602683610a1a565b9150610dc082610d59565b604082019050919050565b60006020820190508181036000830152610de481610da8565b905091905056fea26469706673582212206d40779acce1e9dcb320e1956fa7e9b950c18920f90c40320657f69970dffcb064736f6c634300080c0033",
  "immutableReferences": {},
  "source": "// SPDX-License-Identifier: MIT\npragma solidity 0.8.12;\n\nimport \"@openzeppelin/contracts/access/Ownable.sol\";\nimport \"@openzeppelin/contracts/token/ERC20/IERC20.sol\";\n\ncontract Reward is Ownable {\n    IERC20 public token;\n    address public oracle;\n    mapping(address => uint256) public rewardAccumulationMap;\n\n    constructor(IERC20 _token, address _oracle) {\n        require(address(_token) != address(0), \"Invalid token address\");\n        require(address(_oracle) != address(0), \"Invalid oracle address\");\n        token = _token;\n        oracle = _oracle;\n    }\n\n    function setOracle(address _oracle) public onlyOwner {\n        require(address(_oracle) != address(0), \"Invalid address\");\n        oracle = _oracle;\n    }\n\n    function reward(uint256 _amount, address _receiver) public {\n        require(_msgSender() == oracle, \"Invalid sender address\");\n        uint256 rewardAmount = _amount - rewardAccumulationMap[_receiver];\n        require(rewardAmount > 0, \"Invalid reward amount\");\n        token.approve(address(this), rewardAmount);\n        token.transferFrom(address(this), _receiver, rewardAmount);\n        rewardAccumulationMap[_receiver] += rewardAmount;\n    }\n}\n",
  "sourcePath": "/Users/poripuri/Documents/Dev/AniFi/Rewards/anifi-reward-contract/contracts/Reward.sol",
  "compiler": {
    "name": "solc",
    "version": "0.8.12+commit.f00d7308.Emscripten.clang"
  },
  "schemaVersion": "3.4.2",
  "updatedAt": "2023-01-16T06:41:17.941Z",
  "networkType": "ethereum",
  "devdoc": {
    "kind": "dev",
    "methods": {
      "owner()": {
        "details": "Returns the address of the current owner."
      },
      "renounceOwnership()": {
        "details": "Leaves the contract without owner. It will not be possible to call `onlyOwner` functions anymore. Can only be called by the current owner. NOTE: Renouncing ownership will leave the contract without an owner, thereby removing any functionality that is only available to the owner."
      },
      "transferOwnership(address)": {
        "details": "Transfers ownership of the contract to a new account (`newOwner`). Can only be called by the current owner."
      }
    },
    "version": 1
  },
  "userdoc": {
    "kind": "user",
    "methods": {},
    "version": 1
  }
}